{
  "_format": "hh-sol-artifact-1",
  "contractName": "GreenPortal",
  "sourceName": "contracts/GreenPortal.sol",
  "abi": [
    {
      "inputs": [],
      "stateMutability": "payable",
      "type": "constructor"
    },
    {
      "anonymous": false,
      "inputs": [
        {
          "indexed": true,
          "internalType": "address",
          "name": "from",
          "type": "address"
        },
        {
          "indexed": false,
          "internalType": "uint256",
          "name": "timestamp",
          "type": "uint256"
        },
        {
          "indexed": false,
          "internalType": "string",
          "name": "message",
          "type": "string"
        },
        {
          "indexed": false,
          "internalType": "bool",
          "name": "winner",
          "type": "bool"
        }
      ],
      "name": "NewGreen",
      "type": "event"
    },
    {
      "inputs": [],
      "name": "getAllGreens",
      "outputs": [
        {
          "components": [
            {
              "internalType": "address",
              "name": "greenSender",
              "type": "address"
            },
            {
              "internalType": "string",
              "name": "message",
              "type": "string"
            },
            {
              "internalType": "uint256",
              "name": "timestamp",
              "type": "uint256"
            },
            {
              "internalType": "bool",
              "name": "winner",
              "type": "bool"
            }
          ],
          "internalType": "struct GreenPortal.Green[]",
          "name": "",
          "type": "tuple[]"
        }
      ],
      "stateMutability": "view",
      "type": "function"
    },
    {
      "inputs": [],
      "name": "getTotalGreens",
      "outputs": [
        {
          "internalType": "uint256",
          "name": "",
          "type": "uint256"
        }
      ],
      "stateMutability": "view",
      "type": "function"
    },
    {
      "inputs": [
        {
          "internalType": "address",
          "name": "",
          "type": "address"
        }
      ],
      "name": "lastSentGreensAt",
      "outputs": [
        {
          "internalType": "uint256",
          "name": "",
          "type": "uint256"
        }
      ],
      "stateMutability": "view",
      "type": "function"
    },
    {
      "inputs": [
        {
          "internalType": "string",
          "name": "_message",
          "type": "string"
        }
      ],
      "name": "sendGreen",
      "outputs": [],
      "stateMutability": "nonpayable",
      "type": "function"
    }
  ],
  "bytecode": "0x60806040526000600160006101000a81548160ff0219169083151502179055506200004e604051806060016040528060218152602001620015c9602191396200007660201b620006a71760201c565b606444426200005e9190620001c3565b6200006a919062000260565b60028190555062000307565b62000116816040516024016200008d919062000183565b6040516020818303038152906040527f41304fac000000000000000000000000000000000000000000000000000000007bffffffffffffffffffffffffffffffffffffffffffffffffffffffff19166020820180517bffffffffffffffffffffffffffffffffffffffffffffffffffffffff83818316178352505050506200011960201b60201c565b50565b60008151905060006a636f6e736f6c652e6c6f679050602083016000808483855afa5050505050565b60006200014f82620001a7565b6200015b8185620001b2565b93506200016d8185602086016200022a565b6200017881620002f6565b840191505092915050565b600060208201905081810360008301526200019f818462000142565b905092915050565b600081519050919050565b600082825260208201905092915050565b6000620001d08262000220565b9150620001dd8362000220565b9250827fffffffffffffffffffffffffffffffffffffffffffffffffffffffffffffffff0382111562000215576200021462000298565b5b828201905092915050565b6000819050919050565b60005b838110156200024a5780820151818401526020810190506200022d565b838111156200025a576000848401525b50505050565b60006200026d8262000220565b91506200027a8362000220565b9250826200028d576200028c620002c7565b5b828206905092915050565b7f4e487b7100000000000000000000000000000000000000000000000000000000600052601160045260246000fd5b7f4e487b7100000000000000000000000000000000000000000000000000000000600052601260045260246000fd5b6000601f19601f8301169050919050565b6112b280620003176000396000f3fe608060405234801561001057600080fd5b506004361061004c5760003560e01c80630b88632c1461005157806312e2648f1461006d5780637efd13591461009d578063dcf79d0a146100bb575b600080fd5b61006b60048036038101906100669190610a89565b6100d9565b005b61008760048036038101906100829190610a60565b61051a565b6040516100949190610f06565b60405180910390f35b6100a5610532565b6040516100b29190610dbd565b60405180910390f35b6100c361069e565b6040516100d09190610f06565b60405180910390f35b42610384600460003373ffffffffffffffffffffffffffffffffffffffff1673ffffffffffffffffffffffffffffffffffffffff168152602001908152602001600020546101279190611031565b10610167576040517f08c379a000000000000000000000000000000000000000000000000000000000815260040161015e90610ee6565b60405180910390fd5b42600460003373ffffffffffffffffffffffffffffffffffffffff1673ffffffffffffffffffffffffffffffffffffffff1681526020019081526020016000208190555060016000808282546101bd9190611031565b925050819055506101e7604051806060016040528060248152602001611259602491393383610740565b606460025442446101f89190611031565b6102029190611031565b61020c9190611143565b6002819055506102536040518060400160405280601681526020017f52616e646f6d20232067656e6572617465643a202564000000000000000000008152506002546107df565b6032600254116103b35761029c6040518060400160405280600781526020017f257320776f6e21000000000000000000000000000000000000000000000000008152503361087b565b60018060006101000a81548160ff0219169083151502179055506000655af3107a4000905047811115610304576040517f08c379a00000000000000000000000000000000000000000000000000000000081526004016102fb90610ea6565b60405180910390fd5b60003373ffffffffffffffffffffffffffffffffffffffff168260405161032a90610da8565b60006040518083038185875af1925050503d8060008114610367576040519150601f19603f3d011682016040523d82523d6000602084013e61036c565b606091505b50509050806103b0576040517f08c379a00000000000000000000000000000000000000000000000000000000081526004016103a790610ec6565b60405180910390fd5b50505b600360405180608001604052803373ffffffffffffffffffffffffffffffffffffffff168152602001838152602001428152602001600160009054906101000a900460ff161515815250908060018154018082558091505060019003906000526020600020906004020160009091909190915060008201518160000160006101000a81548173ffffffffffffffffffffffffffffffffffffffff021916908373ffffffffffffffffffffffffffffffffffffffff1602179055506020820151816001019080519060200190610489929190610940565b506040820151816002015560608201518160030160006101000a81548160ff02191690831515021790555050503373ffffffffffffffffffffffffffffffffffffffff167fd623359b19089211405ba584a487f283c1d037cf67167ed53430cdbcb59ccefa4283600160009054906101000a900460ff1660405161050f93929190610f21565b60405180910390a250565b60046020528060005260406000206000915090505481565b60606003805480602002602001604051908101604052809291908181526020016000905b8282101561069557838290600052602060002090600402016040518060800160405290816000820160009054906101000a900473ffffffffffffffffffffffffffffffffffffffff1673ffffffffffffffffffffffffffffffffffffffff1673ffffffffffffffffffffffffffffffffffffffff1681526020016001820180546105df90611111565b80601f016020809104026020016040519081016040528092919081815260200182805461060b90611111565b80156106585780601f1061062d57610100808354040283529160200191610658565b820191906000526020600020905b81548152906001019060200180831161063b57829003601f168201915b50505050508152602001600282015481526020016003820160009054906101000a900460ff16151515158152505081526020019060010190610556565b50505050905090565b60008054905090565b61073d816040516024016106bb9190610ddf565b6040516020818303038152906040527f41304fac000000000000000000000000000000000000000000000000000000007bffffffffffffffffffffffffffffffffffffffffffffffffffffffff19166020820180517bffffffffffffffffffffffffffffffffffffffffffffffffffffffff8381831617835250505050610917565b50565b6107da83838360405160240161075893929190610e31565b6040516020818303038152906040527fe0e9ad4f000000000000000000000000000000000000000000000000000000007bffffffffffffffffffffffffffffffffffffffffffffffffffffffff19166020820180517bffffffffffffffffffffffffffffffffffffffffffffffffffffffff8381831617835250505050610917565b505050565b61087782826040516024016107f5929190610e76565b6040516020818303038152906040527f9710a9d0000000000000000000000000000000000000000000000000000000007bffffffffffffffffffffffffffffffffffffffffffffffffffffffff19166020820180517bffffffffffffffffffffffffffffffffffffffffffffffffffffffff8381831617835250505050610917565b5050565b6109138282604051602401610891929190610e01565b6040516020818303038152906040527f319af333000000000000000000000000000000000000000000000000000000007bffffffffffffffffffffffffffffffffffffffffffffffffffffffff19166020820180517bffffffffffffffffffffffffffffffffffffffffffffffffffffffff8381831617835250505050610917565b5050565b60008151905060006a636f6e736f6c652e6c6f679050602083016000808483855afa5050505050565b82805461094c90611111565b90600052602060002090601f01602090048101928261096e57600085556109b5565b82601f1061098757805160ff19168380011785556109b5565b828001600101855582156109b5579182015b828111156109b4578251825591602001919060010190610999565b5b5090506109c291906109c6565b5090565b5b808211156109df5760008160009055506001016109c7565b5090565b60006109f66109f184610f90565b610f5f565b905082815260208101848484011115610a0e57600080fd5b610a198482856110cf565b509392505050565b600081359050610a3081611241565b92915050565b600082601f830112610a4757600080fd5b8135610a578482602086016109e3565b91505092915050565b600060208284031215610a7257600080fd5b6000610a8084828501610a21565b91505092915050565b600060208284031215610a9b57600080fd5b600082013567ffffffffffffffff811115610ab557600080fd5b610ac184828501610a36565b91505092915050565b6000610ad68383610d27565b905092915050565b610ae781611087565b82525050565b610af681611087565b82525050565b6000610b0782610fd0565b610b118185610ff3565b935083602082028501610b2385610fc0565b8060005b85811015610b5f5784840389528151610b408582610aca565b9450610b4b83610fe6565b925060208a01995050600181019050610b27565b50829750879550505050505092915050565b610b7a81611099565b82525050565b610b8981611099565b82525050565b6000610b9a82610fdb565b610ba4818561100f565b9350610bb48185602086016110de565b610bbd81611230565b840191505092915050565b6000610bd382610fdb565b610bdd8185611020565b9350610bed8185602086016110de565b610bf681611230565b840191505092915050565b6000610c0e603483611020565b91507f547279696e6720746f207769746864726177206d6f7265206d6f6e657920746860008301527f616e2074686520636f6e7472616374206861732e0000000000000000000000006020830152604082019050919050565b6000610c74602783611020565b91507f4661696c656420746f207769746864726177206d6f6e65792066726f6d20636f60008301527f6e74726163742e000000000000000000000000000000000000000000000000006020830152604082019050919050565b6000610cda600083611004565b9150600082019050919050565b6000610cf4600883611020565b91507f576169742031356d0000000000000000000000000000000000000000000000006000830152602082019050919050565b6000608083016000830151610d3f6000860182610ade565b5060208301518482036020860152610d578282610b8f565b9150506040830151610d6c6040860182610d8a565b506060830151610d7f6060860182610b71565b508091505092915050565b610d93816110c5565b82525050565b610da2816110c5565b82525050565b6000610db382610ccd565b9150819050919050565b60006020820190508181036000830152610dd78184610afc565b905092915050565b60006020820190508181036000830152610df98184610bc8565b905092915050565b60006040820190508181036000830152610e1b8185610bc8565b9050610e2a6020830184610aed565b9392505050565b60006060820190508181036000830152610e4b8186610bc8565b9050610e5a6020830185610aed565b8181036040830152610e6c8184610bc8565b9050949350505050565b60006040820190508181036000830152610e908185610bc8565b9050610e9f6020830184610d99565b9392505050565b60006020820190508181036000830152610ebf81610c01565b9050919050565b60006020820190508181036000830152610edf81610c67565b9050919050565b60006020820190508181036000830152610eff81610ce7565b9050919050565b6000602082019050610f1b6000830184610d99565b92915050565b6000606082019050610f366000830186610d99565b8181036020830152610f488185610bc8565b9050610f576040830184610b80565b949350505050565b6000604051905081810181811067ffffffffffffffff82111715610f8657610f85611201565b5b8060405250919050565b600067ffffffffffffffff821115610fab57610faa611201565b5b601f19601f8301169050602081019050919050565b6000819050602082019050919050565b600081519050919050565b600081519050919050565b6000602082019050919050565b600082825260208201905092915050565b600081905092915050565b600082825260208201905092915050565b600082825260208201905092915050565b600061103c826110c5565b9150611047836110c5565b9250827fffffffffffffffffffffffffffffffffffffffffffffffffffffffffffffffff0382111561107c5761107b611174565b5b828201905092915050565b6000611092826110a5565b9050919050565b60008115159050919050565b600073ffffffffffffffffffffffffffffffffffffffff82169050919050565b6000819050919050565b82818337600083830152505050565b60005b838110156110fc5780820151818401526020810190506110e1565b8381111561110b576000848401525b50505050565b6000600282049050600182168061112957607f821691505b6020821081141561113d5761113c6111d2565b5b50919050565b600061114e826110c5565b9150611159836110c5565b925082611169576111686111a3565b5b828206905092915050565b7f4e487b7100000000000000000000000000000000000000000000000000000000600052601160045260246000fd5b7f4e487b7100000000000000000000000000000000000000000000000000000000600052601260045260246000fd5b7f4e487b7100000000000000000000000000000000000000000000000000000000600052602260045260246000fd5b7f4e487b7100000000000000000000000000000000000000000000000000000000600052604160045260246000fd5b6000601f19601f8301169050919050565b61124a81611087565b811461125557600080fd5b5056fe2573206861732073656e74206120677265656e2077697468206d65737361676520257321a2646970667358221220f1efff02ea9060e7abbae9df009f40264c4e4f01e32ff697d637a65830a9694264736f6c63430008000033436f6e747261637420636f6e7374727563746564207375636365737366756c6c79",
  "linkReferences": {},
  "deployedLinkReferences": {}
}